:040000008CEF07F08A
:10060000004341524420464F554E4400524649440F
:100610002052454144590000226E020E1F6E000E0A
:10062000216E000E1E6E21EF03F0120E216E100ED1
:100630001E6E36EF03F0770E216E300E1E6E36EF13
:1006400003F022501C6E1D6A1D50000AD8B42BEF17
:1006500003F036EF03F01C500C0AD8B41BEF03F084
:10066000020AD8B415EF03F036EF03F021508009E9
:100670000B6E020E1EEC07F0070E0F6E000E106ED2
:10068000040E6EEC05F0070E0F6E010E106E0A0ED2
:100690006EEC05F0000E0B6E010E1EEC07F0000E66
:1006A000246E000E236E62EF03F023501524D96EE2
:1006B00024501620DA6EDF500B6E090E1EEC07F088
:1006C000234A242A17501C6E1D6A1C50235C1D509F
:1006D0002458D8A06EEF03F070EF03F055EF03F04D
:1006E00022C00BF0010E1EEC07F00C0E2218D8A44D
:1006F0007CEF03F07EEF03F085EF03F0070E0F6E43
:10070000010E106E0D0E6EEC05F0070E246ED00E6D
:10071000236E040E0CEC07F0256E2306D8A02406E9
:1007200023502410D8B497EF03F099EF03F0AAEF09
:1007300003F025B09EEF03F0A0EF03F0AAEF03F063
:1007400025501E140009D8B4A8EF03F0AAEF03F057
:1007500089EF03F0070E0F6E000E106E0D0E6EEC9B
:1007600005F023502410D8B4B8EF03F0BAEF03F02B
:100770003DEF04F0060E0CEC07F01C6E1B0E1C1671
:10078000D8A4C5EF03F0C7EF03F03BEF04F0000E71
:100790001F6E255021141C6E1CA0D1EF03F0D3EF67
:1007A00003F0D5EF03F0010E1F6E0C0E2218D8A433
:1007B000DCEF03F0DEEF03F03DEF04F00A0E0CEC8B
:1007C00007F0256E0C0E0CEC07F0070B206E205086
:1007D000D8B4EDEF03F0EFEF03F0FBEF03F025509B
:1007E000080DF3502024F80F1AC0D9FF1BC0DAFF00
:1007F000DF6E03EF04F02550080D1AC0D9FF1BC0AF
:10080000DAFFF3CFDFFF2550D8A409EF04F00BEF98
:1008100004F00DEF04F0010E256E100E256413EFA9
:1008200004F015EF04F017EF04F0100E256E000E23
:10083000246E000E236E2BEF04F0090E0CEC07F073
:100840001C6E23501824D96E24501920DA6E1CC057
:10085000DFFF234A242A25501C6E1D6A1C50235C8E
:100860001D502458D8A037EF04F039EF04F01DEFE5
:1008700004F03DEF04F0020E1F6E1F501200000E38
:10088000296E000E0B6E0D0E1EEC07F026C0D9FF70
:1008900027C0DAFF930EDF6E20EE01F02650D92636
:1008A0002750DA22200EDF6E26C015F027C016F082
:1008B000020E176E26C018F027C019F02A0E1A6E05
:1008C000000E1B6E0C0E0CEC03F02B6E2B50D8A4FC
:1008D0006CEF04F06EEF04F092EF04F0000E2C6E5B
:1008E0002C502624D96E000E2720DA6EDF50291AEC
:1008F0002C2A030E2C647FEF04F081EF04F070EFDC
:1009000004F02C502624D96E000E2720DA6E2950D0
:10091000DE18D8B48EEF04F090EF04F092EF04F0FC
:10092000020E2B6E2B50120011EC06F0F9EC06F0C3
:10093000030E3F6E080E3E6E770EE82EFED73E2E5B
:10094000FCD73F2EFAD700F00C0E046E060E056E93
:1009500059EC06F0DDEC06F0406E4004D8A4B3EF8D
:1009600004F0B5EF04F0D5EF04F06CEC07F0010EE5
:10097000046E060E056E59EC06F0330E3F6EBB0E8C
:100980003E6EE00EE82EFED73E2EFCD73F2EFAD765
:10099000330E3F6EBB0E3E6EE00EE82EFED73E2EAF
:1009A000FCD73F2EFAD7D7EF04F06CEC07F0820E9D
:1009B0003E6EDE0EE82EFED73E2EFCD7AAEF04F0E8
:1009C00000EF00F0030E056E080E046E770EE82EA1
:1009D000FED7042EFCD7052EFAD700F0030E9DECAF
:1009E00006F0340E046EF20EE82EFED7042EFCD76D
:1009F000020E9DEC06F0340E046EF20EE82EFED7C9
:100A0000042EFCD7280E9DEC06F0340E046EF20E78
:100A1000E82EFED7042EFCD7010E9DEC06F0340E16
:100A2000046EF20EE82EFED7042EFCD70C0E9DECC1
:100A300006F0340E046EF20EE82EFED7042EFCD71C
:100A4000060E9DEC06F0340E046EF20EE82EFED774
:100A5000042EFCD71200036E000E046E2EEC07F07D
:100A60003EEC07F0000E066E070E056E05C001F0A5
:100A700003C002F0012A3FEF05F0D8900232012EA8
:100A80003DEF05F002A047EF05F049EF05F04DEF0F
:100A900005F0CBEC07F04FEF05F0C9EC07F03EECAA
:100AA00007F0C7EC07F0D89004367AEC07F0041290
:100AB0003EEC07F0C5EC07F00506D8A0060606BE1A
:100AC00066EF05F064EF05F036EF05F02EEC07F069
:100AD000C9EC07F03EEC07F004501200136E1350FF
:100AE0000CEC07F0146E1004D8A479EF05F07BEF3E
:100AF00005F08BEF05F00FC011F0010E126E112AF8
:100B000084EF05F0D8901236112E82EF05F01250C6
:100B10001412A2EF05F01050D8A491EF05F093EF56
:100B200005F0A2EF05F00FC011F0010E126E112AB0
:100B30009CEF05F0D8901236112E9AEF05F0125066
:100B4000FF0A141614C00BF013501EEC07F012002D
:100B5000016E01A0AEEF05F0B0EF05F0B4EF05F0C7
:100B6000E1EC07F0B6EF05F0DFEC07F001A2BBEF18
:100B700005F0BDEF05F0C1EF05F0DDEC07F0C3EFC8
:100B800005F0DBEC07F001A4C8EF05F0CAEF05F0B3
:100B9000CEEF05F0D9EC07F0D0EF05F0D7EC07F079
:100BA00001A6D5EF05F0D7EF05F0DBEF05F0D5ECAA
:100BB00007F0DDEF05F0D3EC07F01200286E070E0A
:100BC0000B6E0D0E1EEC07F026C0D9FF27C0DAFF12
:100BD00028C0DFFF26C015F027C016F0010E176EE3
:100BE00026C018F027C019F02A0E1A6E000E1B6ED0
:100BF0000C0E0CEC03F0296E2950D8A402EF06F07D
:100C000004EF06F00DEF06F0100E2A18D8B40BEF23
:100C100006F00DEF06F00FEF06F0020E296E2950D8
:100C2000120091EC07F086EC07F08D0E0B6E2A0E89
:100C30001EEC07F03E0E0B6E2B0E1EEC07F01E0E88
:100C40000B6E2D0E1EEC07F0000E0B6E2C0E1EEC24
:100C500007F0400E0B6E150E1EEC07F03D0E0B6EEE
:100C6000110E1EEC07F0BFEC06F01200CDEC07F001
:100C7000000E0A6E4DEF06F00A500724D96E000EE2
:100C80000820DA6E0A500724E16E000E0820E26E9A
:100C9000E7502BEC05F0DF6E0A2A09500A5CD8A059
:100CA00054EF06F056EF06F03CEF06F0CFEC07F0FD
:100CB00012006CEF06F004C0F6FF05C0F7FF080055
:100CC000F5507BEC06F0044A052A340E066EF20E4F
:100CD000E82EFED7062EFCD704C0F6FF05C0F7FFAE
:100CE0000800F5500009D8A478EF06F07AEF06F076
:100CF0005BEF06F01200036ED1EC07F003380F0B28
:100D0000A8EC05F0E7EC07F0340E026EF20EE82EC8
:100D1000FED7022EFCD7E5EC07F003500F0BA8EC32
:100D200005F0E7EC07F0340E026EF20EE82EFED767
:100D3000022EFCD7E5EC07F01200036EE3EC07F09F
:100D400003380F0BA8EC05F0E7EC07F0340E026E49
:100D5000F20EE82EFED7022EFCD7E5EC07F003508A
:100D60000F0BA8EC05F0E7EC07F0340E026EF20E64
:100D7000E82EFED7022EFCD7E5EC07F01200140E89
:100D80000CEC07F0166E16C015F0030E1516D8A45D
:100D9000CCEF06F0CEEF06F0DCEF06F0000E0F6EA3
:100DA000010E106E140E6EEC05F0010E0F6E010EAA
:100DB000106E140E6EEC05F012002D0E266E000E55
:100DC000276E260EDEEC05F03D6E2D0E266E000E13
:100DD000276E3FEC04F03D6E3D50D8A4F2EF06F0D4
:100DE000F4EF06F0F7EF06F0010EF8EF06F0000E54
:100DF0001200030E076E080E066E770EE82EFED761
:100E0000062EFCD7072EFAD700F05DEC07F0E2ECD7
:100E100004F06CEC07F012000B6E0B500B247E0BF1
:100E200080090C6E000E0D6E0C0E076E000E086E23
:100E3000020E096E36EC06F00D5012000C6E0C50CE
:100E40000C247E0B0D6E0BC00EF00D0E076E000E07
:100E5000086E020E096E36EC06F01200000ED76E18
:100E6000000ED66ED75009E1500ED65CD8A03BEFED
:100E700007F03DEF07F032EF07F01200000ED76EDB
:100E8000000ED66ED75009E1280ED65CD8A04BEFE5
:100E900007F04DEF07F042EF07F0120096EC07F075
:100EA000C5EC07F09EEC07F09AEC07F0C9EC07F0F0
:100EB000A2EC07F0CFEC07F01200AAEC07F0A6ECCA
:100EC00007F0AEEC07F0BEEC07F0BAEC07F0B6ECBA
:100ED00007F0B2EC07F01200000E9DEC06F0010ED8
:100EE0009DEC06F0340E046EF20EE82EFED7042EB2
:100EF000FCD7120082A87FEF07F081EF07F084EFA4
:100F000007F0010E85EF07F0000E12000F0E0B6EBA
:100F1000010E1EEC07F01200000EF86E000194EFB7
:100F200004F04EEC07F0C2EC07F0120094960F01AB
:100F30003A971200949A0F013A9B120094880F017D
:100F40003A99120093940F0139951200949C0F0165
:100F50003A9D120094940F013A951200949E0F014D
:100F60003A9F1200939E0F01399F1200939C0F012C
:100F7000399D1200939A0F01399B120093980F012B
:100F800039991200800ED56E12008B9612008B8656
:100F900012008B9A12008B8A12008A9412008A84A3
:100FA00012008B8412008A9E12008A8E12008A9C84
:100FB00012008A8C12008A9A12008A8A12008A9879
:100FC00012008A8812008B9412008B9E12008B8E66
:020FD00012000D
:020000040020DA
:08000000FFFFFFFFFFFFFFFF00
:020000040030CA
:0E000000FF281F3CFFBF85FF0FC00FE00F4021
:00000001FF
