:04000000D3EF3FF00B
:107F8E008A8412008B9A12008B961200800ED56E88
:107F9E001200E6EC3FF012000001EBEF3FF093947D
:107FAE000F013995120094880F013A991200949A94
:107FBE000F013A9B120094960F013A971200F1ECC2
:107FCE003FF0CDEC3FF01200D0EC3FF0EDEF3FF084
:107FDE0000EF00F0E2EC3FF0CBEC3FF0DAEC3FF0DC
:107FEE00DEEC3FF0C9EC3FF0D6EC3FF0C7EC3FF0D3
:027FFE0012006F
:020000040020DA
:08000000FFFFFFFFFFFFFFFF00
:020000040030CA
:0E000000FF281F3CFFBF85FF0FC00FE00F4021
:00000001FF
