:04000000ABEF07F06B
:10060000004341524420464F554E4400524649440F
:100610002052454144590000226E020E1F6E000E0A
:10062000216E000E1E6E21EF03F0120E216E100ED1
:100630001E6E36EF03F0770E216E300E1E6E36EF13
:1006400003F022501C6E1D6A1D50000AD8B42BEF17
:1006500003F036EF03F01C500C0AD8B41BEF03F084
:10066000020AD8B415EF03F036EF03F021508009E9
:100670000B6E020E4CEC07F0070E0F6E000E106EA4
:10068000040E66EC05F0070E0F6E010E106E0A0EDA
:1006900066EC05F0000E0B6E010E4CEC07F0000E40
:1006A000246E000E236E62EF03F023501524D96EE2
:1006B00024501620DA6EDF500B6E090E4CEC07F05A
:1006C000234A242A17501C6E1D6A1C50235C1D509F
:1006D0002458D8A06EEF03F070EF03F055EF03F04D
:1006E00022C00BF0010E4CEC07F00C0E2218D8A41F
:1006F0007CEF03F07EEF03F085EF03F0070E0F6E43
:10070000010E106E0D0E66EC05F0070E246ED00E75
:10071000236E040E3AEC07F0256E2306D8A02406BB
:1007200023502410D8B497EF03F099EF03F0AAEF09
:1007300003F025B09EEF03F0A0EF03F0AAEF03F063
:1007400025501E140009D8B4A8EF03F0AAEF03F057
:1007500089EF03F0070E0F6E000E106E0D0E66ECA3
:1007600005F023502410D8B4B8EF03F0BAEF03F02B
:100770003DEF04F0060E3AEC07F01C6E1B0E1C1643
:10078000D8A4C5EF03F0C7EF03F03BEF04F0000E71
:100790001F6E255021141C6E1CA0D1EF03F0D3EF67
:1007A00003F0D5EF03F0010E1F6E0C0E2218D8A433
:1007B000DCEF03F0DEEF03F03DEF04F00A0E3AEC5D
:1007C00007F0256E0C0E3AEC07F0070B206E205058
:1007D000D8B4EDEF03F0EFEF03F0FBEF03F025509B
:1007E000080DF3502024F80F1AC0D9FF1BC0DAFF00
:1007F000DF6E03EF04F02550080D1AC0D9FF1BC0AF
:10080000DAFFF3CFDFFF2550D8A409EF04F00BEF98
:1008100004F00DEF04F0010E256E100E256413EFA9
:1008200004F015EF04F017EF04F0100E256E000E23
:10083000246E000E236E2BEF04F0090E3AEC07F045
:100840001C6E23501824D96E24501920DA6E1CC057
:10085000DFFF234A242A25501C6E1D6A1C50235C8E
:100860001D502458D8A037EF04F039EF04F01DEFE5
:1008700004F03DEF04F0020E1F6E1F501200000E38
:10088000296E000E0B6E0D0E4CEC07F026C0D9FF42
:1008900027C0DAFF930EDF6E20EE01F02650D92636
:1008A0002750DA22200EDF6E26C015F027C016F082
:1008B000020E176E26C018F027C019F02A0E1A6E05
:1008C000000E1B6E0C0E0CEC03F02B6E2B50D8A4FC
:1008D0006CEF04F06EEF04F092EF04F0000E2C6E5B
:1008E0002C502624D96E000E2720DA6EDF50291AEC
:1008F0002C2A030E2C647FEF04F081EF04F070EFDC
:1009000004F02C502624D96E000E2720DA6E2950D0
:10091000DE18D8B48EEF04F090EF04F092EF04F0FC
:10092000020E2B6E2B501200030E056E080E046E85
:10093000770EE82EFED7042EFCD7052EFAD700F04E
:10094000030EA2EC06F0340E046EF20EE82EFED773
:10095000042EFCD7020EA2EC06F0340E046EF20E4A
:10096000E82EFED7042EFCD7280EA2EC06F0340E9B
:10097000046EF20EE82EFED7042EFCD7010EA2EC78
:1009800006F0340E046EF20EE82EFED7042EFCD7CD
:100990000C0EA2EC06F0340E046EF20EE82EFED71A
:1009A000042EFCD7060EA2EC06F0340E046EF20EF6
:1009B000E82EFED7042EFCD7120009EC06F0C4EC9A
:1009C00006F00C0E046E060E056E5EEC06F01EECD4
:1009D00007F0406E4004D8A4F0EF04F0F2EF04F00A
:1009E00018EF05F08BEC07F0010E046E060E056E95
:1009F0005EEC06F0330E3F6EBB0E3E6EE00EE82E50
:100A0000FED73E2EFCD73F2EFAD7330E3F6EBB0EDD
:100A10003E6EE00EE82EFED73E2EFCD73F2EFAD7D4
:100A20008BEC07F00C0E046E060E056E5EEC06F005
:100A3000820E3E6EDE0EE82EFED73E2EFCD7E7EF8E
:100A400004F000EF00F0036E000E046E5CEC07F0A3
:100A50006CEC07F0000E066E070E056E05C001F087
:100A600003C002F0012A37EF05F0D8900232012EC0
:100A700035EF05F002A03FEF05F041EF05F045EF3F
:100A800005F0F2EC07F047EF05F0F0EC07F06CEC46
:100A900007F0EEEC07F0D890043699EC07F004125A
:100AA0006CEC07F0ECEC07F00506D8A0060606BED5
:100AB0005EEF05F05CEF05F02EEF05F05CEC07F063
:100AC000F0EC07F06CEC07F004501200136E1350BA
:100AD0003AEC07F0146E1004D8A471EF05F073EF30
:100AE00005F083EF05F00FC011F0010E126E112A10
:100AF0007CEF05F0D8901236112E7AEF05F01250E7
:100B000014129AEF05F01050D8A489EF05F08BEF7E
:100B100005F09AEF05F00FC011F0010E126E112AC8
:100B200094EF05F0D8901236112E92EF05F0125086
:100B3000FF0A141614C00BF013504CEC07F012000F
:100B4000016E01A0A6EF05F0A8EF05F0ACEF05F0EF
:100B50000AEC08F0AEEF05F008EC08F001A2B3EFE4
:100B600005F0B5EF05F0B9EF05F006EC08F0BBEFC6
:100B700005F004EC08F001A4C0EF05F0C2EF05F0A9
:100B8000C6EF05F002EC08F0C8EF05F000EC08F045
:100B900001A6CDEF05F0CFEF05F0D3EF05F0FEECA9
:100BA00007F0D5EF05F0FCEC07F01200286E070EF9
:100BB0000B6E0D0E4CEC07F026C0D9FF27C0DAFFF4
:100BC00028C0DFFF26C015F027C016F0010E176EF3
:100BD00026C018F027C019F02A0E1A6E000E1B6EE0
:100BE0000C0E0CEC03F0296E2950D8A4FAEF05F096
:100BF000FCEF05F005EF06F0100E2A18D8B403EF4D
:100C000006F005EF06F007EF06F0020E296E2950F8
:100C10001200C5EC07F0B0EC07F0E8EC07F0820E2C
:100C2000176EDE0EE82EFED7172EFCD7EAEC07F083
:100C3000A5EC07F08D0E0B6E2A0E4CEC07F03E0E65
:100C40000B6E2B0E4CEC07F01E0E0B6E2D0E4CECAB
:100C500007F0000E0B6E2C0E4CEC07F0400E0B6EE6
:100C6000150E4CEC07F03D0E0B6E110E4CEC07F020
:100C7000E3EC06F01200F4EC07F0000E0A6E52EFFF
:100C800006F00A500724D96E000E0820DA6E0A50CA
:100C90000724E16E000E0820E26EE75023EC05F019
:100CA000DF6E0A2A09500A5CD8A059EF06F05BEF04
:100CB00006F041EF06F0F6EC07F0120071EF06F0D7
:100CC00004C0F6FF05C0F7FF0800F55080EC06F001
:100CD000044A052A340E066EF20EE82EFED7062EC2
:100CE000FCD704C0F6FF05C0F7FF0800F550000967
:100CF000D8A47DEF06F07FEF06F060EF06F012005B
:100D0000036EF8EC07F003380F0BA0EC05F010ECC5
:100D100008F0340E026EF20EE82EFED7022EFCD73B
:100D20000EEC08F003500F0BA0EC05F010EC08F0EF
:100D3000340E026EF20EE82EFED7022EFCD70EEC19
:100D400008F01200036E0CEC08F003380F0BA0EC57
:100D500005F010EC08F0340E026EF20EE82EFED70D
:100D6000022EFCD70EEC08F003500F0BA0EC05F0A0
:100D700010EC08F0340E026EF20EE82EFED7022EB2
:100D8000FCD70EEC08F01200030E076E080E066E7C
:100D9000770EE82EFED7062EFCD7072EFAD700F0E6
:100DA00001EC07F094EC04F08BEC07F0030E076EF7
:100DB000080E066E770EE82EFED7062EFCD7072EFD
:100DC000FAD700F01200140E3AEC07F0166E16C0B7
:100DD00015F0030E1516D8A4F0EF06F0F2EF06F0AA
:100DE00000EF07F0000E0F6E010E106E140E66EC91
:100DF00005F0010E0F6E010E106E140E66EC05F07C
:100E00001200CDEC07F0C9EC07F0D1EC07F0E1ECF3
:100E100007F0DDEC07F0D9EC07F0D5EC07F00CECAF
:100E200008F0FAEC07F00EEC08F008EC08F004EC1F
:100E300008F000EC08F0FCEC07F012002D0E266E16
:100E4000000E276E260ED6EC05F03D6E2D0E266E9A
:100E5000000E276E3FEC04F03D6E3D50D8A433EFFA
:100E600007F035EF07F038EF07F0010E39EF07F024
:100E7000000E12000B6E0B500B247E0B80090C6EC3
:100E8000000E0D6E0C0E076E000E086E020E096E3F
:100E90003BEC06F00D5012000C6E0C500C247E0B37
:100EA0000D6E0BC00EF00D0E076E000E086E020EDA
:100EB000096E3BEC06F01200000ED76E000ED66EE7
:100EC000D75009E1500ED65CD8A069EF07F06BEF60
:100ED00007F060EF07F01200000ED76E000ED66E1E
:100EE000D75009E1280ED65CD8A079EF07F07BEF48
:100EF00007F070EF07F01200B5EC07F0ECEC07F02C
:100F0000BDEC07F0B9EC07F0F0EC07F0C1EC07F02E
:100F1000F6EC07F01200000EA2EC06F0010EA2ECB7
:100F200006F0340E046EF20EE82EFED7042EFCD727
:100F3000120082A89EEF07F0A0EF07F0A3EF07F0E2
:100F4000010EA4EF07F0000E12000F0E0B6E010E43
:100F50004CEC07F01200000EF86E0001DDEF04F01B
:100F60007CEC07F0E5EC07F0120094960F013A973D
:100F70001200949A0F013A9B120094880F013A993B
:100F8000120093940F013995120093920F01399337
:100F90001200949C0F013A9D120094940F013A950F
:100FA0001200949E0F013A9F1200939E0F01399FE9
:100FB0001200939C0F01399D1200939A0F01399BE7
:100FC000120093980F0139991200800ED56E12000D
:100FD0008A9212008A8212008B9612008B8612006F
:100FE0008B9A12008B8A12008A9412008A84120053
:100FF0008B8412008B9C12008A9E12008A8E120033
:101000008A9C12008A8C12008A9A12008A8A120024
:101010008A9812008A8812008B9412008B9E12000C
:041020008B8E1200A1
:020000040020DA
:08000000FFFFFFFFFFFFFFFF00
:020000040030CA
:0E000000FF281F3CFFBF85FF0FC00FE00F4021
:00000001FF
