:04000000D6EF3CF00B
:107964008A8412008A9412008B8A12008B9A120065
:107974008B8612008B961200800ED56E12009394A3
:107984000F013995120094880F013A991200949AC4
:107994000F013A9B120094960F013A971200F5ECEE
:1079A4003CF0BEEC3CF01200000EF86E0001E1EF7A
:1079B4003CF00F0E0B6E010E24EC3DF01200A3EC14
:1079C4003DF046EC3DF0E3EF3CF000EF00F082A820
:1079D400EEEF3CF0F0EF3CF0F3EF3CF0010EF4EF8F
:1079E4003CF0000E1200CDEC3CF0BCEC3CF0C5ECDD
:1079F4003CF0C9EC3CF0B8EC3CF0C1EC3CF0B2EC2F
:107A04003CF01200000ED76E000ED66ED75009E17E
:107A1400280ED65CD8A011EF3DF013EF3DF008EF2F
:107A24003DF01200000ED76E000ED66ED75009E15D
:107A3400500ED65CD8A021EF3DF023EF3DF018EFB7
:107A44003DF012000C6E0C500C247E0B0D6E0BC01E
:107A54000EF00D0E076E000E086E020E096E80EC1D
:107A64003DF012000B6E0B500B247E0B80090C6E44
:107A7400000E0D6E0C0E076E000E086E020E096EDF
:107A840080EC3DF00D5012002D0E266E000E276E78
:107A9400260EC8EC3DF03D6E2D0E266E000E276EB0
:107AA40078EC3EF03D6E3D50D8A45BEF3DF05DEFC9
:107AB4003DF060EF3DF0010E61EF3DF0000E12006D
:107AC400140E34EC3DF0166E16C015F0030E1516A8
:107AD400D8A46FEF3DF071EF3DF07FEF3DF0000E65
:107AE4000F6E010E106E140EFBEC3DF0010E0F6EC6
:107AF400010E106E140EFBEC3DF01200B4EC3CF0E1
:107B0400000E0A6E97EF3DF00A500724D96E000E5E
:107B14000820DA6E0A500724E16E000E0820E26E97
:107B2400E75035EC3EF0DF6E0A2A09500A5CD8A013
:107B34009EEF3DF0A0EF3DF086EF3DF0B2EC3CF05F
:107B44001200D1EC3CF0DBEC3CF08D0E0B6E2A0EF7
:107B540024EC3DF03E0E0B6E2B0E24EC3DF01E0E7D
:107B64000B6E2D0E24EC3DF0000E0B6E2C0E24EC4F
:107B74003DF0400E0B6E150E24EC3DF03D0E0B6EE9
:107B8400110E24EC3DF062EC3DF01200286E070E5D
:107B94000B6E0D0E24EC3DF026C0D9FF27C0DAFF92
:107BA40028C0DFFF26C015F027C016F0010E176E9F
:107BB40026C018F027C019F02A0E1A6E000E1B6E8C
:107BC4000C0ECDEC3EF0296E2950D8A4ECEF3DF01C
:107BD400EEEF3DF0F7EF3DF0100E2A18D8B4F5EFB4
:107BE4003DF0F7EF3DF0F9EF3DF0020E296E29501C
:107BF4001200136E135034EC3DF0146E1004D8A42C
:107C040006EF3EF008EF3EF018EF3EF00FC011F023
:107C1400010E126E112A11EF3EF0D8901236112E79
:107C24000FEF3EF0125014122FEF3EF01050D8A474
:107C34001EEF3EF020EF3EF02FEF3EF00FC011F0AC
:107C4400010E126E112A29EF3EF0D8901236112E31
:107C540027EF3EF01250FF0A141614C00BF0135015
:107C640024EC3DF01200036E000E046E14EC3DF0A3
:107C740004EC3DF0000E066E070E056E05C001F023
:107C840003C002F0012A49EF3EF0D8900232012EDF
:107C940047EF3EF002A051EF3EF053EF3EF057EFB6
:107CA4003EF0B6EC3CF059EF3EF0B8EC3CF004EC9E
:107CB4003DF0BAEC3CF0D8900436E9EC3CF0041208
:107CC40004EC3DF0BCEC3CF00506D8A0060606BE6C
:107CD40070EF3EF06EEF3EF040EF3EF014EC3DF0FE
:107CE400B8EC3CF004EC3DF004501200000E296E98
:107CF400000E0B6E0D0E24EC3DF026C0D9FF27C0FC
:107D0400DAFF930EDF6E20EE01F02650D9262750BD
:107D1400DA22200EDF6E26C015F027C016F0020E00
:107D2400176E26C018F027C019F02A0E1A6E000E1E
:107D34001B6E0C0ECDEC3EF02B6E2B50D8A4A5EF91
:107D44003EF0A7EF3EF0CBEF3EF0000E2C6E2C5031
:107D54002624D96E000E2720DA6EDF50291A2C2A29
:107D6400030E2C64B8EF3EF0BAEF3EF0A9EF3EF0FC
:107D74002C502624D96E000E2720DA6E2950DE18E6
:107D8400D8B4C7EF3EF0C9EF3EF0CBEF3EF0020EA1
:107D94002B6E2B501200226E020E1F6E000E216EEF
:107DA400000E1E6EE2EF3EF0120E216E100E1E6EDD
:107DB400F7EF3EF0770E216E300E1E6EF7EF3EF0B9
:107DC40022501C6E1D6A1D50000AD8B4ECEF3EF020
:107DD400F7EF3EF01C500C0AD8B4DCEF3EF0020A78
:107DE400D8B4D6EF3EF0F7EF3EF0215080090B6E89
:107DF400020E24EC3DF0070E0F6E000E106E040E02
:107E0400FBEC3DF0070E0F6E010E106E0A0EFBEC3C
:107E14003DF0000E0B6E010E24EC3DF0000E246EBE
:107E2400000E236E23EF3FF023501524D96E245007
:107E34001620DA6EDF500B6E090E24EC3DF0234A57
:107E4400242A17501C6E1D6A1C50235C1D50245894
:107E5400D8A02FEF3FF031EF3FF016EF3FF022C0F4
:107E64000BF0010E24EC3DF00C0E2218D8A43DEFCB
:107E74003FF03FEF3FF046EF3FF0070E0F6E010E6D
:107E8400106E0D0EFBEC3DF0070E246ED00E236E2B
:107E9400040E34EC3DF0256E2306D8A024062350AE
:107EA4002410D8B458EF3FF05AEF3FF06BEF3FF097
:107EB40025B05FEF3FF061EF3FF06BEF3FF02550EF
:107EC4001E140009D8B469EF3FF06BEF3FF04AEF9E
:107ED4003FF0070E0F6E000E106E0D0EFBEC3DF022
:107EE40023502410D8B479EF3FF07BEF3FF0FEEF3E
:107EF4003FF0060E34EC3DF01C6E1B0E1C16D8A48D
:107F040086EF3FF088EF3FF0FCEF3FF0000E1F6E6E
:107F1400255021141C6E1CA092EF3FF094EF3FF00B
:107F240096EF3FF0010E1F6E0C0E2218D8A49DEFA1
:107F34003FF09FEF3FF0FEEF3FF00A0E34EC3DF0D0
:107F4400256E0C0E34EC3DF0070B206E2050D8B497
:107F5400AEEF3FF0B0EF3FF0BCEF3FF02550080D1F
:107F6400F3502024F80F1AC0D9FF1BC0DAFFDF6ECC
:107F7400C4EF3FF02550080D1AC0D9FF1BC0DAFF2B
:107F8400F3CFDFFF2550D8A4CAEF3FF0CCEF3FF08A
:107F9400CEEF3FF0010E256E100E2564D4EF3FF0B6
:107FA400D6EF3FF0D8EF3FF0100E256E000E246E92
:107FB400000E236EECEF3FF0090E34EC3DF01C6E26
:107FC40023501824D96E24501920DA6E1CC0DFFF08
:107FD400234A242A25501C6E1D6A1C50235C1D5004
:107FE4002458D8A0F8EF3FF0FAEF3FF0DEEF3FF06F
:0C7FF400FEEF3FF0020E1F6E1F50120047
:020000040020DA
:08000000FFFFFFFFFFFFFFFF00
:020000040030CA
:0E000000FF281F3CFFBF85FF0FC00FE00F4021
:00000001FF
