:04000000A7EF07F06F
:10060000004341524420464F554E4400524649440F
:100610002052454144590000226E020E1F6E000E0A
:10062000216E000E1E6E21EF03F0120E216E100ED1
:100630001E6E36EF03F0770E216E300E1E6E36EF13
:1006400003F022501C6E1D6A1D50000AD8B42BEF17
:1006500003F036EF03F01C500C0AD8B41BEF03F084
:10066000020AD8B415EF03F036EF03F021508009E9
:100670000B6E020E48EC07F0070E0F6E000E106EA8
:10068000040E62EC05F0070E0F6E010E106E0A0EDE
:1006900062EC05F0000E0B6E010E48EC07F0000E48
:1006A000246E000E236E62EF03F023501524D96EE2
:1006B00024501620DA6EDF500B6E090E48EC07F05E
:1006C000234A242A17501C6E1D6A1C50235C1D509F
:1006D0002458D8A06EEF03F070EF03F055EF03F04D
:1006E00022C00BF0010E48EC07F00C0E2218D8A423
:1006F0007CEF03F07EEF03F085EF03F0070E0F6E43
:10070000010E106E0D0E62EC05F0070E246ED00E79
:10071000236E040E36EC07F0256E2306D8A02406BF
:1007200023502410D8B497EF03F099EF03F0AAEF09
:1007300003F025B09EEF03F0A0EF03F0AAEF03F063
:1007400025501E140009D8B4A8EF03F0AAEF03F057
:1007500089EF03F0070E0F6E000E106E0D0E62ECA7
:1007600005F023502410D8B4B8EF03F0BAEF03F02B
:100770003DEF04F0060E36EC07F01C6E1B0E1C1647
:10078000D8A4C5EF03F0C7EF03F03BEF04F0000E71
:100790001F6E255021141C6E1CA0D1EF03F0D3EF67
:1007A00003F0D5EF03F0010E1F6E0C0E2218D8A433
:1007B000DCEF03F0DEEF03F03DEF04F00A0E36EC61
:1007C00007F0256E0C0E36EC07F0070B206E20505C
:1007D000D8B4EDEF03F0EFEF03F0FBEF03F025509B
:1007E000080DF3502024F80F1AC0D9FF1BC0DAFF00
:1007F000DF6E03EF04F02550080D1AC0D9FF1BC0AF
:10080000DAFFF3CFDFFF2550D8A409EF04F00BEF98
:1008100004F00DEF04F0010E256E100E256413EFA9
:1008200004F015EF04F017EF04F0100E256E000E23
:10083000246E000E236E2BEF04F0090E36EC07F049
:100840001C6E23501824D96E24501920DA6E1CC057
:10085000DFFF234A242A25501C6E1D6A1C50235C8E
:100860001D502458D8A037EF04F039EF04F01DEFE5
:1008700004F03DEF04F0020E1F6E1F501200000E38
:10088000296E000E0B6E0D0E48EC07F026C0D9FF46
:1008900027C0DAFF930EDF6E20EE01F02650D92636
:1008A0002750DA22200EDF6E26C015F027C016F082
:1008B000020E176E26C018F027C019F02A0E1A6E05
:1008C000000E1B6E0C0E0CEC03F02B6E2B50D8A4FC
:1008D0006CEF04F06EEF04F092EF04F0000E2C6E5B
:1008E0002C502624D96E000E2720DA6EDF50291AEC
:1008F0002C2A030E2C647FEF04F081EF04F070EFDC
:1009000004F02C502624D96E000E2720DA6E2950D0
:10091000DE18D8B48EEF04F090EF04F092EF04F0FC
:10092000020E2B6E2B501200030E056E080E046E85
:10093000770EE82EFED7042EFCD7052EFAD700F04E
:10094000030E9EEC06F0340E046EF20EE82EFED777
:10095000042EFCD7020E9EEC06F0340E046EF20E4E
:10096000E82EFED7042EFCD7280E9EEC06F0340E9F
:10097000046EF20EE82EFED7042EFCD7010E9EEC7C
:1009800006F0340E046EF20EE82EFED7042EFCD7CD
:100990000C0E9EEC06F0340E046EF20EE82EFED71E
:1009A000042EFCD7060E9EEC06F0340E046EF20EFA
:1009B000E82EFED7042EFCD71200036E000E046E44
:1009C00058EC07F068EC07F0000E066E070E056E97
:1009D00005C001F003C002F0012AF1EF04F0D89045
:1009E0000232012EEFEF04F002A0F9EF04F0FBEF6A
:1009F00004F0FFEF04F0EEEC07F001EF05F0ECEC93
:100A000007F068EC07F0EAEC07F0D890043695ECB4
:100A100007F0041268EC07F0E8EC07F00506D8A030
:100A2000060606BE18EF05F016EF05F0E8EF04F035
:100A300058EC07F0ECEC07F068EC07F004501200FB
:100A400005EC06F0C0EC06F00C0E046E060E056E0A
:100A50005AEC06F01AEC07F0406E4004D8A433EFCD
:100A600005F035EF05F055EF05F087EC07F0010EC6
:100A7000046E060E056E5AEC06F0330E3F6EBB0E8A
:100A80003E6EE00EE82EFED73E2EFCD73F2EFAD764
:100A9000330E3F6EBB0E3E6EE00EE82EFED73E2EAE
:100AA000FCD73F2EFAD757EF05F087EC07F0820E00
:100AB0003E6EDE0EE82EFED73E2EFCD72AEF05F066
:100AC00000EF00F0136E135036EC07F0146E1004B4
:100AD000D8A46DEF05F06FEF05F07FEF05F00FC0C4
:100AE00011F0010E126E112A78EF05F0D89012362F
:100AF000112E76EF05F01250141296EF05F01050FB
:100B0000D8A485EF05F087EF05F096EF05F00FC04C
:100B100011F0010E126E112A90EF05F0D8901236E6
:100B2000112E8EEF05F01250FF0A141614C00BF0B0
:100B3000135048EC07F01200016E01A0A2EF05F07F
:100B4000A4EF05F0A8EF05F006EC08F0AAEF05F019
:100B500004EC08F001A2AFEF05F0B1EF05F0B5EF3E
:100B600005F002EC08F0B7EF05F000EC08F001A486
:100B7000BCEF05F0BEEF05F0C2EF05F0FEEC07F0AC
:100B8000C4EF05F0FCEC07F001A6C9EF05F0CBEFD0
:100B900005F0CFEF05F0FAEC07F0D1EF05F0F8EC37
:100BA00007F01200286E070E0B6E0D0E48EC07F0D2
:100BB00026C0D9FF27C0DAFF28C0DFFF26C015F006
:100BC00027C016F0010E176E26C018F027C019F0C6
:100BD0002A0E1A6E000E1B6E0C0E0CEC03F0296E22
:100BE0002950D8A4F6EF05F0F8EF05F001EF06F074
:100BF000100E2A18D8B4FFEF05F001EF06F003EF4E
:100C000006F0020E296E29501200C1EC07F0ACEC80
:100C100007F0E4EC07F0820E176EDE0EE82EFED72A
:100C2000172EFCD7E6EC07F0A1EC07F08D0E0B6E4B
:100C30002A0E48EC07F03E0E0B6E2B0E48EC07F028
:100C40001E0E0B6E2D0E48EC07F0000E0B6E2C0ED8
:100C500048EC07F0400E0B6E150E48EC07F03D0E09
:100C60000B6E110E48EC07F0DFEC06F01200F0EC12
:100C700007F0000E0A6E4EEF06F00A500724D96EF8
:100C8000000E0820DA6E0A500724E16E000E0820DC
:100C9000E26EE750DDEC04F0DF6E0A2A09500A5CD0
:100CA000D8A055EF06F057EF06F03DEF06F0F2EC56
:100CB00007F012006DEF06F004C0F6FF05C0F7FF65
:100CC0000800F5507CEC06F0044A052A340E066E46
:100CD000F20EE82EFED7062EFCD704C0F6FF05C0A4
:100CE000F7FF0800F5500009D8A479EF06F07BEF74
:100CF00006F05CEF06F01200036EF4EC07F0033828
:100D00000F0B9CEC05F00CEC08F0340E026EF20EAA
:100D1000E82EFED7022EFCD70AEC08F003500F0B8A
:100D20009CEC05F00CEC08F0340E026EF20EE82E8E
:100D3000FED7022EFCD70AEC08F01200036E08EC76
:100D400008F003380F0B9CEC05F00CEC08F0340EA7
:100D5000026EF20EE82EFED7022EFCD70AEC08F047
:100D600003500F0B9CEC05F00CEC08F0340E026EF7
:100D7000F20EE82EFED7022EFCD70AEC08F0120085
:100D8000030E076E080E066E770EE82EFED7062EAF
:100D9000FCD7072EFAD700F0FDEC06F094EC04F037
:100DA00087EC07F0030E076E080E066E770EE82E2E
:100DB000FED7062EFCD7072EFAD700F01200140E2D
:100DC00036EC07F0166E16C015F0030E1516D8A4F3
:100DD000ECEF06F0EEEF06F0FCEF06F0000E0F6E03
:100DE000010E106E140E62EC05F0010E0F6E010E76
:100DF000106E140E62EC05F01200C9EC07F0C5ECA1
:100E000007F0CDEC07F0DDEC07F0D9EC07F0D5ECFE
:100E100007F0D1EC07F008EC08F0F6EC07F00AEC6C
:100E200008F004EC08F000EC08F0FCEC07F0F8EC3B
:100E300007F012002D0E266E000E276E260ED2EC45
:100E400005F03D6E2D0E266E000E276E3FEC04F071
:100E50003D6E3D50D8A42FEF07F031EF07F034EF8F
:100E600007F0010E35EF07F0000E12000B6E0B506D
:100E70000B247E0B80090C6E000E0D6E0C0E076E9F
:100E8000000E086E020E096E37EC06F00D501200CF
:100E90000C6E0C500C247E0B0D6E0BC00EF00D0E64
:100EA000076E000E086E020E096E37EC06F0120097
:100EB000000ED76E000ED66ED75009E1500ED65CEC
:100EC000D8A065EF07F067EF07F05CEF07F01200BE
:100ED000000ED76E000ED66ED75009E1280ED65CF4
:100EE000D8A075EF07F077EF07F06CEF07F012006E
:100EF000B1EC07F0E8EC07F0B9EC07F0B5EC07F05F
:100F0000ECEC07F0BDEC07F0F2EC07F01200000E7D
:100F10009EEC06F0010E9EEC06F0340E046EF20E0E
:100F2000E82EFED7042EFCD7120082A89AEF07F015
:100F30009CEF07F09FEF07F0010EA0EF07F0000E07
:100F400012000F0E0B6E010E48EC07F01200000E9F
:100F5000F86E000120EF05F078EC07F0E1EC07F007
:100F6000120094960F013A971200949A0F013A9B3F
:100F7000120094880F013A99120093940F01399549
:100F8000120093920F0139931200949C0F013A9D25
:100F9000120094940F013A951200949E0F013A9F0B
:100FA0001200939E0F01399F1200939C0F01399DEF
:100FB0001200939A0F01399B120093980F013999EF
:100FC0001200800ED56E12008A9212008A821200E0
:100FD0008B9612008B8612008B9A12008B8A12005D
:100FE0008A9412008A8412008B8412008B9C120057
:100FF0008A9E12008A8E12008A9C12008A8C12002D
:101000008A9A12008A8A12008A9812008A8812002C
:0C1010008B9412008B9E12008B8E12003D
:020000040020DA
:08000000FFFFFFFFFFFFFFFF00
:020000040030CA
:0E000000FF281F3CFFBF85FF0FC00FE00F4021
:00000001FF
